{
  "_format": "hh-sol-artifact-1",
  "contractName": "SujalToken",
  "sourceName": "contracts/SujalToken.sol",
  "abi": [
    {
      "inputs": [
        {
          "internalType": "string",
          "name": "_name",
          "type": "string"
        },
        {
          "internalType": "string",
          "name": "_symbol",
          "type": "string"
        },
        {
          "internalType": "uint256",
          "name": "_totalSupply",
          "type": "uint256"
        }
      ],
      "stateMutability": "nonpayable",
      "type": "constructor"
    },
    {
      "anonymous": false,
      "inputs": [
        {
          "indexed": true,
          "internalType": "address",
          "name": "from",
          "type": "address"
        },
        {
          "indexed": false,
          "internalType": "uint256",
          "name": "value",
          "type": "uint256"
        }
      ],
      "name": "Burn",
      "type": "event"
    },
    {
      "anonymous": false,
      "inputs": [
        {
          "indexed": true,
          "internalType": "address",
          "name": "to",
          "type": "address"
        },
        {
          "indexed": false,
          "internalType": "uint256",
          "name": "value",
          "type": "uint256"
        }
      ],
      "name": "Mint",
      "type": "event"
    },
    {
      "anonymous": false,
      "inputs": [
        {
          "indexed": true,
          "internalType": "address",
          "name": "from",
          "type": "address"
        },
        {
          "indexed": true,
          "internalType": "address",
          "name": "to",
          "type": "address"
        },
        {
          "indexed": false,
          "internalType": "uint256",
          "name": "value",
          "type": "uint256"
        }
      ],
      "name": "Transfer",
      "type": "event"
    },
    {
      "inputs": [
        {
          "internalType": "address",
          "name": "",
          "type": "address"
        }
      ],
      "name": "balanceOf",
      "outputs": [
        {
          "internalType": "uint256",
          "name": "",
          "type": "uint256"
        }
      ],
      "stateMutability": "view",
      "type": "function"
    },
    {
      "inputs": [
        {
          "internalType": "uint256",
          "name": "_value",
          "type": "uint256"
        }
      ],
      "name": "burn",
      "outputs": [
        {
          "internalType": "bool",
          "name": "",
          "type": "bool"
        }
      ],
      "stateMutability": "nonpayable",
      "type": "function"
    },
    {
      "inputs": [
        {
          "internalType": "address",
          "name": "_to",
          "type": "address"
        },
        {
          "internalType": "uint256",
          "name": "_value",
          "type": "uint256"
        }
      ],
      "name": "mint",
      "outputs": [
        {
          "internalType": "bool",
          "name": "",
          "type": "bool"
        }
      ],
      "stateMutability": "nonpayable",
      "type": "function"
    },
    {
      "inputs": [],
      "name": "name",
      "outputs": [
        {
          "internalType": "string",
          "name": "",
          "type": "string"
        }
      ],
      "stateMutability": "view",
      "type": "function"
    },
    {
      "inputs": [],
      "name": "owner",
      "outputs": [
        {
          "internalType": "address",
          "name": "",
          "type": "address"
        }
      ],
      "stateMutability": "view",
      "type": "function"
    },
    {
      "inputs": [],
      "name": "symbol",
      "outputs": [
        {
          "internalType": "string",
          "name": "",
          "type": "string"
        }
      ],
      "stateMutability": "view",
      "type": "function"
    },
    {
      "inputs": [],
      "name": "totalSupply",
      "outputs": [
        {
          "internalType": "uint256",
          "name": "",
          "type": "uint256"
        }
      ],
      "stateMutability": "view",
      "type": "function"
    },
    {
      "inputs": [
        {
          "internalType": "address",
          "name": "_to",
          "type": "address"
        },
        {
          "internalType": "uint256",
          "name": "_value",
          "type": "uint256"
        }
      ],
      "name": "transfer",
      "outputs": [
        {
          "internalType": "bool",
          "name": "",
          "type": "bool"
        }
      ],
      "stateMutability": "nonpayable",
      "type": "function"
    }
  ],
  "bytecode": "0x60806040523480156200001157600080fd5b50604051620014db380380620014db8339818101604052810190620000379190620002be565b826000908162000048919062000599565b5081600190816200005a919062000599565b508060028190555080600360003373ffffffffffffffffffffffffffffffffffffffff1673ffffffffffffffffffffffffffffffffffffffff1681526020019081526020016000208190555033600460006101000a81548173ffffffffffffffffffffffffffffffffffffffff021916908373ffffffffffffffffffffffffffffffffffffffff16021790555050505062000680565b6000604051905090565b600080fd5b600080fd5b600080fd5b600080fd5b6000601f19601f8301169050919050565b7f4e487b7100000000000000000000000000000000000000000000000000000000600052604160045260246000fd5b62000159826200010e565b810181811067ffffffffffffffff821117156200017b576200017a6200011f565b5b80604052505050565b600062000190620000f0565b90506200019e82826200014e565b919050565b600067ffffffffffffffff821115620001c157620001c06200011f565b5b620001cc826200010e565b9050602081019050919050565b60005b83811015620001f9578082015181840152602081019050620001dc565b60008484015250505050565b60006200021c6200021684620001a3565b62000184565b9050828152602081018484840111156200023b576200023a62000109565b5b62000248848285620001d9565b509392505050565b600082601f83011262000268576200026762000104565b5b81516200027a84826020860162000205565b91505092915050565b6000819050919050565b620002988162000283565b8114620002a457600080fd5b50565b600081519050620002b8816200028d565b92915050565b600080600060608486031215620002da57620002d9620000fa565b5b600084015167ffffffffffffffff811115620002fb57620002fa620000ff565b5b620003098682870162000250565b935050602084015167ffffffffffffffff8111156200032d576200032c620000ff565b5b6200033b8682870162000250565b92505060406200034e86828701620002a7565b9150509250925092565b600081519050919050565b7f4e487b7100000000000000000000000000000000000000000000000000000000600052602260045260246000fd5b60006002820490506001821680620003ab57607f821691505b602082108103620003c157620003c062000363565b5b50919050565b60008190508160005260206000209050919050565b60006020601f8301049050919050565b600082821b905092915050565b6000600883026200042b7fffffffffffffffffffffffffffffffffffffffffffffffffffffffffffffffff82620003ec565b620004378683620003ec565b95508019841693508086168417925050509392505050565b6000819050919050565b60006200047a620004746200046e8462000283565b6200044f565b62000283565b9050919050565b6000819050919050565b620004968362000459565b620004ae620004a58262000481565b848454620003f9565b825550505050565b600090565b620004c5620004b6565b620004d28184846200048b565b505050565b5b81811015620004fa57620004ee600082620004bb565b600181019050620004d8565b5050565b601f82111562000549576200051381620003c7565b6200051e84620003dc565b810160208510156200052e578190505b620005466200053d85620003dc565b830182620004d7565b50505b505050565b600082821c905092915050565b60006200056e600019846008026200054e565b1980831691505092915050565b60006200058983836200055b565b9150826002028217905092915050565b620005a48262000358565b67ffffffffffffffff811115620005c057620005bf6200011f565b5b620005cc825462000392565b620005d9828285620004fe565b600060209050601f831160018114620006115760008415620005fc578287015190505b6200060885826200057b565b86555062000678565b601f1984166200062186620003c7565b60005b828110156200064b5784890151825560018201915060208501945060208101905062000624565b868310156200066b578489015162000667601f8916826200055b565b8355505b6001600288020188555050505b505050505050565b610e4b80620006906000396000f3fe608060405234801561001057600080fd5b50600436106100885760003560e01c806370a082311161005b57806370a08231146101295780638da5cb5b1461015957806395d89b4114610177578063a9059cbb1461019557610088565b806306fdde031461008d57806318160ddd146100ab57806340c10f19146100c957806342966c68146100f9575b600080fd5b6100956101c5565b6040516100a291906109d5565b60405180910390f35b6100b3610253565b6040516100c09190610a10565b60405180910390f35b6100e360048036038101906100de9190610aba565b610259565b6040516100f09190610b15565b60405180910390f35b610113600480360381019061010e9190610b30565b610421565b6040516101209190610b15565b60405180910390f35b610143600480360381019061013e9190610b5d565b61056b565b6040516101509190610a10565b60405180910390f35b610161610583565b60405161016e9190610b99565b60405180910390f35b61017f6105a9565b60405161018c91906109d5565b60405180910390f35b6101af60048036038101906101aa9190610aba565b610637565b6040516101bc9190610b15565b60405180910390f35b600080546101d290610be3565b80601f01602080910402602001604051908101604052809291908181526020018280546101fe90610be3565b801561024b5780601f106102205761010080835404028352916020019161024b565b820191906000526020600020905b81548152906001019060200180831161022e57829003601f168201915b505050505081565b60025481565b6000600460009054906101000a900473ffffffffffffffffffffffffffffffffffffffff1673ffffffffffffffffffffffffffffffffffffffff163373ffffffffffffffffffffffffffffffffffffffff16146102eb576040517f08c379a00000000000000000000000000000000000000000000000000000000081526004016102e290610c86565b60405180910390fd5b600073ffffffffffffffffffffffffffffffffffffffff168373ffffffffffffffffffffffffffffffffffffffff160361035a576040517f08c379a000000000000000000000000000000000000000000000000000000000815260040161035190610cf2565b60405180910390fd5b81600360008573ffffffffffffffffffffffffffffffffffffffff1673ffffffffffffffffffffffffffffffffffffffff16815260200190815260200160002060008282546103a99190610d41565b9250508190555081600260008282546103c29190610d41565b925050819055508273ffffffffffffffffffffffffffffffffffffffff167f0f6798a560793a54c3bcfe86a93cde1e73087d944c0ea20544137d41213968858360405161040f9190610a10565b60405180910390a26001905092915050565b6000600360003373ffffffffffffffffffffffffffffffffffffffff1673ffffffffffffffffffffffffffffffffffffffff168152602001908152602001600020548211156104a5576040517f08c379a000000000000000000000000000000000000000000000000000000000815260040161049c90610dc1565b60405180910390fd5b81600360003373ffffffffffffffffffffffffffffffffffffffff1673ffffffffffffffffffffffffffffffffffffffff16815260200190815260200160002060008282546104f49190610de1565b92505081905550816002600082825461050d9190610de1565b925050819055503373ffffffffffffffffffffffffffffffffffffffff167fcc16f5dbb4873280815c1ee09dbd06736cffcc184412cf7a71a0fdb75d397ca58360405161055a9190610a10565b60405180910390a260019050919050565b60036020528060005260406000206000915090505481565b600460009054906101000a900473ffffffffffffffffffffffffffffffffffffffff1681565b600180546105b690610be3565b80601f01602080910402602001604051908101604052809291908181526020018280546105e290610be3565b801561062f5780601f106106045761010080835404028352916020019161062f565b820191906000526020600020905b81548152906001019060200180831161061257829003601f168201915b505050505081565b60008073ffffffffffffffffffffffffffffffffffffffff168373ffffffffffffffffffffffffffffffffffffffff16036106a7576040517f08c379a000000000000000000000000000000000000000000000000000000000815260040161069e90610cf2565b60405180910390fd5b600360003373ffffffffffffffffffffffffffffffffffffffff1673ffffffffffffffffffffffffffffffffffffffff16815260200190815260200160002054821115610729576040517f08c379a000000000000000000000000000000000000000000000000000000000815260040161072090610dc1565b60405180910390fd5b61073433848461073e565b6001905092915050565b600073ffffffffffffffffffffffffffffffffffffffff168273ffffffffffffffffffffffffffffffffffffffff16036107ad576040517f08c379a00000000000000000000000000000000000000000000000000000000081526004016107a490610cf2565b60405180910390fd5b600360008473ffffffffffffffffffffffffffffffffffffffff1673ffffffffffffffffffffffffffffffffffffffff1681526020019081526020016000205481111561082f576040517f08c379a000000000000000000000000000000000000000000000000000000000815260040161082690610dc1565b60405180910390fd5b80600360008573ffffffffffffffffffffffffffffffffffffffff1673ffffffffffffffffffffffffffffffffffffffff168152602001908152602001600020600082825461087e9190610de1565b9250508190555080600360008473ffffffffffffffffffffffffffffffffffffffff1673ffffffffffffffffffffffffffffffffffffffff16815260200190815260200160002060008282546108d49190610d41565b925050819055508173ffffffffffffffffffffffffffffffffffffffff168373ffffffffffffffffffffffffffffffffffffffff167fddf252ad1be2c89b69c2b068fc378daa952ba7f163c4a11628f55a4df523b3ef836040516109389190610a10565b60405180910390a3505050565b600081519050919050565b600082825260208201905092915050565b60005b8381101561097f578082015181840152602081019050610964565b60008484015250505050565b6000601f19601f8301169050919050565b60006109a782610945565b6109b18185610950565b93506109c1818560208601610961565b6109ca8161098b565b840191505092915050565b600060208201905081810360008301526109ef818461099c565b905092915050565b6000819050919050565b610a0a816109f7565b82525050565b6000602082019050610a256000830184610a01565b92915050565b600080fd5b600073ffffffffffffffffffffffffffffffffffffffff82169050919050565b6000610a5b82610a30565b9050919050565b610a6b81610a50565b8114610a7657600080fd5b50565b600081359050610a8881610a62565b92915050565b610a97816109f7565b8114610aa257600080fd5b50565b600081359050610ab481610a8e565b92915050565b60008060408385031215610ad157610ad0610a2b565b5b6000610adf85828601610a79565b9250506020610af085828601610aa5565b9150509250929050565b60008115159050919050565b610b0f81610afa565b82525050565b6000602082019050610b2a6000830184610b06565b92915050565b600060208284031215610b4657610b45610a2b565b5b6000610b5484828501610aa5565b91505092915050565b600060208284031215610b7357610b72610a2b565b5b6000610b8184828501610a79565b91505092915050565b610b9381610a50565b82525050565b6000602082019050610bae6000830184610b8a565b92915050565b7f4e487b7100000000000000000000000000000000000000000000000000000000600052602260045260246000fd5b60006002820490506001821680610bfb57607f821691505b602082108103610c0e57610c0d610bb4565b5b50919050565b7f4f6e6c792074686520636f6e7472616374206f776e65722063616e2063616c6c60008201527f20746869732066756e6374696f6e000000000000000000000000000000000000602082015250565b6000610c70602e83610950565b9150610c7b82610c14565b604082019050919050565b60006020820190508181036000830152610c9f81610c63565b9050919050565b7f496e76616c696420726563697069656e74206164647265737300000000000000600082015250565b6000610cdc601983610950565b9150610ce782610ca6565b602082019050919050565b60006020820190508181036000830152610d0b81610ccf565b9050919050565b7f4e487b7100000000000000000000000000000000000000000000000000000000600052601160045260246000fd5b6000610d4c826109f7565b9150610d57836109f7565b9250828201905080821115610d6f57610d6e610d12565b5b92915050565b7f496e73756666696369656e742062616c616e6365000000000000000000000000600082015250565b6000610dab601483610950565b9150610db682610d75565b602082019050919050565b60006020820190508181036000830152610dda81610d9e565b9050919050565b6000610dec826109f7565b9150610df7836109f7565b9250828203905081811115610e0f57610e0e610d12565b5b9291505056fea2646970667358221220b83963f9ee7f54f997b4bd6d85b47f7da493a0f153b5c3a65853fdc478d4f56264736f6c63430008120033",
  "linkReferences": {},
  "deployedLinkReferences": {}
}